{
  "contractName": "DataMuleContract",
  "abi": [
    {
      "anonymous": false,
      "inputs": [
        {
          "indexed": false,
          "internalType": "string",
          "name": "message",
          "type": "string"
        },
        {
          "indexed": false,
          "internalType": "string",
          "name": "receiver",
          "type": "string"
        }
      ],
      "name": "SendMessage",
      "type": "event"
    },
    {
      "inputs": [
        {
          "internalType": "address",
          "name": "",
          "type": "address"
        }
      ],
      "name": "dataMuleTokenCount",
      "outputs": [
        {
          "internalType": "uint256",
          "name": "",
          "type": "uint256"
        }
      ],
      "stateMutability": "view",
      "type": "function",
      "constant": true
    },
    {
      "inputs": [
        {
          "internalType": "uint256",
          "name": "",
          "type": "uint256"
        }
      ],
      "name": "senderList",
      "outputs": [
        {
          "internalType": "address",
          "name": "",
          "type": "address"
        }
      ],
      "stateMutability": "view",
      "type": "function",
      "constant": true
    },
    {
      "inputs": [],
      "name": "registerAsSender",
      "outputs": [],
      "stateMutability": "nonpayable",
      "type": "function"
    },
    {
      "inputs": [
        {
          "internalType": "string",
          "name": "message",
          "type": "string"
        },
        {
          "internalType": "string",
          "name": "recipient",
          "type": "string"
        },
        {
          "internalType": "bytes",
          "name": "signature",
          "type": "bytes"
        }
      ],
      "name": "verify",
      "outputs": [
        {
          "internalType": "bool",
          "name": "",
          "type": "bool"
        }
      ],
      "stateMutability": "nonpayable",
      "type": "function"
    }
  ],
  "bytecode": "0x608060405234801561001057600080fd5b5061088b806100206000396000f3fe608060405234801561001057600080fd5b506004361061004c5760003560e01c806308a981fe1461005157806315f1e1091461007a578063492ddfb11461008457806394a896c5146100a4575b600080fd5b61006461005f366004610556565b6100c4565b604051610071919061069f565b60405180910390f35b6100826101f3565b005b6100976100923660046105ed565b610234565b604051610071919061068b565b6100b76100b236600461052f565b61025e565b60405161007191906107df565b6000806100d18585610270565b90506000816040516020016100e69190610631565b60408051601f1981840301815291905280516020909101209050600061010c828661029d565b60005490915061012c57634e487b7160e01b600052600160045260246000fd5b60005b6000548110156101e3576000818154811061015a57634e487b7160e01b600052603260045260246000fd5b6000918252602090912001546001600160a01b03838116911614156101d1576101823361031a565b61018b33610354565b7f49d6c51932d4404485586bde0d0f72ec9b9915d8a5f0114c8e8c0a3999bde8c188886040516101bc9291906106c8565b60405180910390a160019450505050506101ec565b806101db81610818565b91505061012f565b50600093505050505b9392505050565b600080546001810182559080527f290decd9548b62a8d60345a988386fc84ba6bc95484008f6362f93160ef3e5630180546001600160a01b03191633179055565b6000818154811061024457600080fd5b6000918252602090912001546001600160a01b0316905081565b60016020526000908152604090205481565b6060828260405160200161028592919061064d565b60405160208183030381529060405290505b92915050565b60008151604114156102d15760208201516040830151606084015160001a6102c786828585610380565b9350505050610297565b8151604014156102f957602082015160408301516102f0858383610476565b92505050610297565b60405162461bcd60e51b815260040161031190610724565b60405180910390fd5b6001600160a01b038116600090815260016020526040902054610351576001600160a01b0381166000908152600160205260408120555b50565b6001600160a01b038116600090815260016020526040812080549161037883610818565b919050555050565b60007f7fffffffffffffffffffffffffffffff5d576e7357a4501ddfe92f46681b20a08211156103c25760405162461bcd60e51b81526004016103119061075b565b8360ff16601b14806103d757508360ff16601c145b6103f35760405162461bcd60e51b81526004016103119061079d565b60006001868686866040516000815260200160405260405161041894939291906106aa565b6020604051602081039080840390855afa15801561043a573d6000803e3d6000fd5b5050604051601f1901519150506001600160a01b03811661046d5760405162461bcd60e51b8152600401610311906106ed565b95945050505050565b60006001600160ff1b03821660ff83901c601b0161049686828785610380565b9695505050505050565b600067ffffffffffffffff808411156104bb576104bb61083f565b604051601f8501601f1916810160200182811182821017156104df576104df61083f565b6040528481529150818385018610156104f757600080fd5b8484602083013760006020868301015250509392505050565b600082601f830112610520578081fd5b6101ec838335602085016104a0565b600060208284031215610540578081fd5b81356001600160a01b03811681146101ec578182fd5b60008060006060848603121561056a578182fd5b833567ffffffffffffffff80821115610581578384fd5b61058d87838801610510565b945060208601359150808211156105a2578384fd5b6105ae87838801610510565b935060408601359150808211156105c3578283fd5b508401601f810186136105d4578182fd5b6105e3868235602084016104a0565b9150509250925092565b6000602082840312156105fe578081fd5b5035919050565b6000815180845261061d8160208601602086016107e8565b601f01601f19169290920160200192915050565b600082516106438184602087016107e8565b9190910192915050565b6000835161065f8184602088016107e8565b621f1f1f60ea1b908301908152835161067f8160038401602088016107e8565b01600301949350505050565b6001600160a01b0391909116815260200190565b901515815260200190565b93845260ff9290921660208401526040830152606082015260800190565b6000604082526106db6040830185610605565b828103602084015261046d8185610605565b60208082526018908201527f45434453413a20696e76616c6964207369676e61747572650000000000000000604082015260600190565b6020808252601f908201527f45434453413a20696e76616c6964207369676e6174757265206c656e67746800604082015260600190565b60208082526022908201527f45434453413a20696e76616c6964207369676e6174757265202773272076616c604082015261756560f01b606082015260800190565b60208082526022908201527f45434453413a20696e76616c6964207369676e6174757265202776272076616c604082015261756560f01b606082015260800190565b90815260200190565b60005b838110156108035781810151838201526020016107eb565b83811115610812576000848401525b50505050565b600060001982141561083857634e487b7160e01b81526011600452602481fd5b5060010190565b634e487b7160e01b600052604160045260246000fdfea264697066735822122092e4ed27cca2c1bf25d4b186909a8f65ace9205b45c3260ece01ec5c21c9e0b864736f6c63430008000033",
  "immutableReferences": {},
  "source": "// SPDX-License-Identifier: MIT\npragma solidity 0.8.0;\n\nimport \"@openzeppelin/contracts/utils/cryptography/ECDSA.sol\";\n// npm install @openzeppelin/contracts@4.2.0\n\n\ncontract DataMuleContract {\n    \n    using ECDSA for bytes32;\n    \n    \n    // lista di indirizzi dei sender\n    address[] public senderList;\n\n    // Definizione della struttura dati\n    mapping(address => uint) public dataMuleTokenCount;\n\n    // evento utile a inviare il messaggio al destinatario\n    event SendMessage(string message, string receiver);\n\n\n    // funzione che consente a un utente di registrarsi come sender\n    function registerAsSender() public {\n        senderList.push(msg.sender);\n    }\n\n    \n    // Funzione per inserire un nuovo indirizzo in dataMuleTokenCount\n    function insertAddress(address _address) private {\n\n        // Aggiunge l'indirizzo alla struttura con token_count = 0 \n        // se non era stato inserito precedentemente \n        if (dataMuleTokenCount[_address] == 0){\n            dataMuleTokenCount[_address] = 0;\n        }\n    }\n\n\n    // Funzione per asseganre un token a un certo indirizzo di un DataMule\n    function incrementTokenCount(address _address) private {\n        \n        // Si d per scontato che l'indirizzo sia gi nel mapping\n        // Aumenta di 1 il token_count dell'indirizzo\n        dataMuleTokenCount[_address] ++;\n\n    }\n\n\n    // Verifica la firma del messaggio e invia i messaggio al destinatario\n    function verify(string memory message, string memory recipient, bytes memory signature) public returns (bool)  {\n\n        // si riconcatenano le due parti del messaggio in modo da \n        // riottenere il formato in cui  stato firmato il dato\n        string memory concatenatedMessage = append(message, recipient);\n\n        // Calcola l'hash dei dati da verificare\n        bytes32 hash = keccak256(abi.encodePacked(concatenatedMessage));\n\n        // Recupera l'indirizzo dell'utente che ha generato la firma\n        address signer = hash.recover(signature);\n\n        // si verifica che ci siano signer registrati\n        assert(senderList.length > 0);\n\n        // Controlla se l'indirizzo recuperato  nella lista di sender\n        for (uint i = 0; i < senderList.length; i++) {\n            \n            // se si trova corrispondenza \n            if (signer == senderList[i]) {\n\n                // si ricompensa il dataMule associandogli dei token\n                insertAddress(msg.sender);\n                incrementTokenCount(msg.sender);\n\n                // si invia il messaggio al destinatario tramite l'evento\n                emit SendMessage(message, recipient);\n\n                return true;\n            }\n        }\n\n        // si restituisce false se non si trova corrispondenza tr i firmatari\n        return false;\n        \n    }\n\n    // funzione di servizio per appendere le due stringhe e riportarle al formato di firma\n    function append(string memory a, string memory b) internal pure returns (string memory) {\n        return string(abi.encodePacked(a, \"|||\", b));\n    }\n\n\n}\n\n\n\n\n\n",
  "sourcePath": "C:\\Users\\lucap\\OneDrive\\Desktop\\PROGETTI\\PERZONALI\\__TRUSTED_DATA_MULE\\contracts\\DataMuleContract.sol",
  "compiler": {
    "name": "solc",
    "version": "0.8.0+commit.c7dfd78e.Emscripten.clang"
  },
  "schemaVersion": "3.4.16",
  "updatedAt": "2024-02-13T14:49:59.894Z",
  "networkType": "ethereum",
  "devdoc": {
    "kind": "dev",
    "methods": {},
    "version": 1
  },
  "userdoc": {
    "kind": "user",
    "methods": {},
    "version": 1
  }
}